:100000000C9458000C9480000C9480000C94800098
:100010000C9480000C9480000C9480000C94800060
:100020000C9480000C9480000C9480000C94800050
:100030000C9480000C9480000C9480000C94800040
:100040000C9449050C9480000C9480000C94800062
:100050000C9480000C9480000C9480000C94800020
:100060000C9493050C9480000000000025002800EB
:100070002B00040404040404040402020202020229
:10008000030303030303010204081020408001025C
:1000900004081020010204081020000000080002DB
:1000A0000100000304070000000000000000B20689
:1000B00011241FBECFEFD8E0DEBFCDBF11E0A0E01E
:1000C000B1E0EAEAFFE002C005900D92A83DB10759
:1000D000D9F722E0A8EDB1E001C01D92A03CB20723
:1000E000E1F710E0C8E5D0E004C02197FE010E94CE
:1000F000C807C735D107C9F70E94E8060C94D30793
:100100000C940000AF92BF92CF92DF92EF92FF92D9
:100110000F931F93CF93DF936C017B018B01040F2F
:10012000151FEB015E01AE18BF08C017D10759F0CB
:100130006991D601ED91FC910190F081E02DC6010D
:100140000995892B79F7C501DF91CF911F910F9107
:10015000FF90EF90DF90CF90BF90AF90089590E028
:10016000FC01E656FF4F2491FC01EA57FF4F349102
:10017000FC01EE58FF4FE491EE23C9F0222339F041
:10018000233001F1A8F4213019F1223029F1F0E0F7
:10019000EE0FFF1FE859FF4FA591B4918FB7F89468
:1001A000EC91611126C030953E233C938FBF08959A
:1001B0002730A9F02830C9F0243049F78091800019
:1001C0008F7D03C0809180008F7780938000DFCF88
:1001D00084B58F7784BDDBCF84B58F7DFBCF8091D5
:1001E000B0008F778093B000D2CF8091B0008F7D28
:1001F000F9CF3E2BDACF3FB7F89480914702909128
:100200004802A0914902B0914A0226B5A89B05C0B8
:100210002F3F19F00196A11DB11D3FBFBA2FA92F85
:10022000982F8827BC01CD01620F711D811D911D82
:1002300042E0660F771F881F991F4A95D1F70895EE
:100240008F929F92AF92BF92CF92DF92EF92FF92E6
:100250004B015C010E94FB006B017C010E94FB00D2
:100260006C197D098E099F09683E734081059105CF
:10027000A8F321E0821A9108A108B10888EEC80EFF
:1002800083E0D81EE11CF11C81149104A104B10487
:1002900029F7FF90EF90DF90CF90BF90AF909F90A5
:1002A0008F90089521E001C0220F6A95EAF7DC01E2
:1002B0001C962C931C971A965C934E931997ED916C
:1002C000FC910484F585E02D60E00994089508957B
:1002D000DC01ED91FC910684F785E02D41E0099564
:1002E00081E090E00895DC01ED91FC910684F785B2
:1002F000E02D40E00994CF93DF93CDB7DEB7289788
:100300000FB6F894DEBF0FBECDBF409100015091F3
:10031000010160910201709103014D835E836F833F
:100320007887409104015091050160910601709118
:10033000070149835A836B837C832091AE02821725
:1003400010F08FEF820F90E03091AF028C0F9D1F65
:10035000FC01303189F4243079F461816F5F606889
:1003600087EA92E028960FB6F894DEBF0FBECDBFA5
:10037000DF91CF910C9473016581F0CF0F931F93A0
:10038000CF93DF93EC01423018F08C8188608C832E
:100390004F836887222329F0413019F48C818460CF
:1003A0008C8364E670E080E090E00E9420016C8124
:1003B00064FD5CC0E881F9810684F785E02D42E0A8
:1003C00063E0CE0109958BE496E40197F1F7E881AB
:1003D000F9810684F785E02D42E063E0CE010995BE
:1003E00003E512E0C8010197F1F7E881F98106847D
:1003F000F785E02D42E063E0CE010995C801019741
:10040000F1F7E881F9810684F785E02D42E062E0AA
:10041000CE010995C8010197F1F76C816062CE01A8
:100420000E9473018BEE90E00197F1F784E08D83D9
:100430006CE0CE010E94730161E0CE010E94730165
:100440008BE39FE10197F1F782E08E8366E0CE01B6
:100450000E947301E881F9810484F585E02D6FEF36
:10046000CE01DF91CF911F910F9109946062CE016F
:100470000E9473018BE496E40197F1F76C8160624E
:10048000CE010E94730103E512E0C8010197F1F764
:100490006C816062CE010E947301BCCF0895089503
:1004A000089520911902260F3327331F2132310579
:1004B000ECF420917102FC0190E080E0243069F0BE
:1004C00082E00895A09119022191AC0147505E4F3E
:1004D000A40FB52FB11D2C930196861798F3809128
:1004E0001902680F6093190280E0089581E0089571
:1004F0001092710281E08093700210924B0261E0D1
:1005000082E10E94AF0061E083E10E94AF00E9EB6D
:10051000F0E080818E7F808380818D7F808388E47E
:100520008093B80085E48093BC000895CF93DF9357
:1005300091E09093F8018823B9F0C091B800D09170
:10054000BA008091BC008A7B8093BC0060E082E1AD
:100550000E94AF0060E083E10E94AF000E94780239
:10056000D093BA00C093B800DF91CF910895CF9295
:10057000DF92EF92FF920F931F93CF93DF93D0916F
:100580009A0281E0D13208F09CC0C09199020E9489
:10059000FB006B017C018091710281116CC082E0D3
:1005A0008093710281E0809370028FEF80936F02DD
:1005B00010926E02D0936D02A9E7B2E0EDE4F2E092
:1005C00080E0D8138DC010924C0280914C02CC0F69
:1005D000C82BC0934C0280914B02813009F084C03B
:1005E00010924B020E94FB006B017C0180914C0237
:1005F0008093BB008091730290917402A091750268
:10060000B0917602892B8A2B8B2BA1F00E94FB00E4
:10061000009173021091740220917502309176025C
:100620006C197D098E099F090617170728073907D6
:1006300008F442C08091BC0083FDD8CF85EC809344
:10064000BC000E94FB006B017C0180917102823032
:1006500009F44CC080916F028F3F09F469C080910A
:100660006F02803209F466C080916F02803309F412
:1006700063C084E026C08091730290917402A091BF
:100680007502B0917602892B8A2B8B2B09F483CFCC
:100690000E94FB0000917302109174022091750278
:1006A000309176026C197D098E099F09061717078C
:1006B0002807390708F06FCF809172020E949602D6
:1006C00085E01092780210929A0210927702DF91E0
:1006D000CF911F910F91FF90EF90DF90CF900895F1
:1006E0009D9191938F5F6DCF85EEA9CF809173021D
:1006F00090917402A0917502B0917602892B8A2B99
:100700008B2B09F4A2CF0E94FB0000917302109181
:10071000740220917502309176026C197D098E0960
:100720009F09061717072807390708F08ECFC4CF8F
:1007300080E0C7CF82E0C5CF83E0C3CF0895E091CA
:10074000410280914002E81730F4F0E0E852FE4F99
:10075000808190E008958FEF9FEF0895909141027E
:10076000809140022FEF3FEF981748F4E92FF0E017
:10077000E852FE4F208130E09F5F90934102C90113
:1007800008958091400290914102891B990B089530
:10079000CF92DF92EF92FF920F931F93CF93DF934D
:1007A0007C01CB018A0120917702222389F0EB01A1
:1007B0006B01C40ED51ECC15DD0569F06991D7011A
:1007C000ED91FC910190F081E02DC7010995F3CFE7
:1007D000642F0E945102C801DF91CF911F910F91A8
:1007E000FF90EF90DF90CF900895CF93DF931F920B
:1007F000CDB7DEB76983209177022223F9F02091EB
:100800009A02203258F021E030E0FC013383228349
:1008100090E080E00F90DF91CF9108958091780271
:10082000E82FF0E0E758FD4F998190838F5F809328
:10083000780280939A0281E090E0ECCF61E0CE01F3
:1008400001960E945102F7CFFC0123812223F1F08F
:10085000262F6181609562236083828191E090936D
:100860007702809399021092780210929A028BE993
:1008700092E00E94F5030E94B702282F30E081E049
:1008800090E0232B11F090E080E0089530E020E02C
:10089000F6CFEF92FF920F931F93CF938C01FC0141
:1008A00084E0C0E0262F30E060FF02C09589C92BAC
:1008B000B90175956795815031968111F3CF41301B
:1008C00011F4F8014489F8016585C62BC42B780121
:1008D000FEE0EF0EF11CF80162896C2BC7010E944B
:1008E0002404F801628960956C23C701CF911F91A0
:1008F0000F91FF90EF900C9424040F931F93CF93CC
:10090000DF93062F0F70423041F440E0602FDF91FB
:10091000CF911F910F910C944904142FEC0170E0BA
:1009200084E0759567958A95E1F7CE010E944904A8
:10093000412F602FCE01EBCFFC0184858823A1F0ED
:10094000218532852115310521F4611107C01586F5
:1009500006C021303105D9F76111F9CF858765854A
:10096000CF010E960C9424040895EF92FF920F93FA
:100970001F93CF93DF93EC01062FF42EE22E8B858D
:10098000888B1092410210924002109278021092CD
:100990009A020E94780286E691E090933F0280934B
:1009A0003E0287E691E090933D0280933C02888965
:1009B00011E010937702809399020E94B70281118F
:1009C0001CC0198B8BE992E00E94AE038E87898947
:1009D000882339F01F861C8260E0CE010E960E94AB
:1009E00024042E2D4F2D602FCE01DF91CF911F912A
:1009F0000F91FF90EF900C94BE01198AE8CF90E020
:100A000080E00895FC0101900020E9F73197AF01E3
:100A1000481B590BBC0187EA92E00C9482000E94AB
:100A2000CE0785ED8093BC00809173029091740293
:100A3000A0917502B09176020796A11DB11D23E029
:100A4000B695A795979587952A95D1F72091BC00E3
:100A500024FD03C0109271020895409173025091D9
:100A600074026091750270917602452B462B472BDC
:100A700069F30097A105B10541F025E32A95F1F747
:100A800000000197A109B109E1CF809172020C9495
:100A900096021F920F920FB60F9211242F933F933D
:100AA0008F939F93AF93BF938091430290914402A1
:100AB000A0914502B09146023091420223E0230FFB
:100AC0002D3758F50196A11DB11D20934202809348
:100AD000430290934402A0934502B0934602809152
:100AE000470290914802A0914902B0914A020196B2
:100AF000A11DB11D8093470290934802A093490223
:100B0000B0934A02BF91AF919F918F913F912F91E6
:100B10000F900FBE0F901F90189526E8230F029696
:100B2000A11DB11DD2CF1F920F920FB60F921124AB
:100B30002F933F934F935F936F937F938F939F93E5
:100B4000AF93BF93EF93FF938091B900887F803676
:100B500009F44AC0F0F5883209F4A7C018F58031CD
:100B600009F49BC0B8F4882309F4F9C0883009F46B
:100B700094C0FF91EF91BF91AF919F918F917F9121
:100B80006F915F914F913F912F910F900FBE0F90FA
:100B90001F901895883109F488C0803251F78093EE
:100BA0006F0214C0803409F49DC040F48033B9F35F
:100BB0008833F9F680936F0285ECB0C0803509F474
:100BC00085C0883509F496C0883499F60E941105CD
:100BD000D0CF883909F48CC038F5883729F050F423
:100BE000883611F0803729F683E0809371021092E5
:100BF0003B0257C0883809F47BC0803919F080382F
:100C000009F0B7CF80913B02803208F071C0E091CB
:100C10003B0281E08E0F80933B028091BB00F0E0AD
:100C2000E55EFD4F80833DC0803B39F0E0F4803AC3
:100C300009F479C0883A09F09CCF84E0809371026E
:100C400010921A0210921902E0913E02F0913F02B6
:100C500009958091190281110FC081E080931902DA
:100C60001092F90109C0803C09F4A6CF883C09F430
:100C7000A3CF883B09F07DCFE0911A0281E08E0F6F
:100C800080931A02F0E0E750FE4F80818093BB0012
:100C900090911A028091190229C080914C02809390
:100CA000BB0085EC8093BC0064CF90916E02809174
:100CB0006D02981758F5E0916E0281E08E0F8093D7
:100CC0006E02F0E0E35BFD4F8081E9CFE0916E02C0
:100CD00081E08E0F80936E028091BB00F0E0E35BB9
:100CE000FD4F808390916E0280916D029817C8F23B
:100CF00085E8D8CFE0916E0281E08E0F80936E027E
:100D00008091BB00F0E0E35BFD4F80838091700237
:100D100081115CCF81E080934B0284EA8093BC0018
:100D20001092710226CF85EC8093BC001092710264
:100D300080913B02803230F4E0913B02F0E0E55ECE
:100D4000FD4F108260913B0270E0E0913C02F09117
:100D50003D028BE192E0099510923B020ACF10927E
:100D60006F0234CFEBE9F2E01382128288EE93E057
:100D7000A0E0B0E084839583A683B7838CE091E004
:100D800091838083E7EAF2E0138212828EE191E0A0
:100D900091838083108A8FEF87871686118A80E27D
:100DA0008387148615861286118694E0928B92E0D2
:100DB000938B91E0948B90E1958B868B80E4878B6D
:100DC00080E8808F50E040E063E0CF010C94520156
:100DD000789484B5826084BD84B5816084BD85B516
:100DE000826085BD85B5816085BD80916E00816022
:100DF00080936E00109281008091810082608093C8
:100E000081008091810081608093810080918000C9
:100E10008160809380008091B10084608093B100F4
:100E20008091B00081608093B00080917A008460EE
:100E300080937A0080917A00826080937A0080911A
:100E40007A00816080937A0080917A008068809334
:100E50007A001092C10020E044E064E187EA92E069
:100E60000E94B5046FEF87EA92E00E949C0480E044
:100E70000E947B018EE291E00E94020581E00E94C7
:100E80007B018CE391E00E94020582E00E947B01DD
:100E900080E591E00E94020583E00E947B0182E6EA
:100EA00091E00E940205CBE3DFE100E010E060ED9D
:100EB00077E080E090E00E94200161E087EA92E024
:100EC0000E947301CE010197F1F768EE73E080E0B4
:100ED00090E00E94200180E00E947B0187E791E082
:100EE0000E94020564EF71E080E090E00E94200122
:100EF00081E00E947B018EE791E00E94020564EF91
:100F000071E080E090E00E94200182E00E947B017D
:100F100085E891E00E94020564EF71E080E090E0D6
:100F20000E94200183E00E947B018CE891E00E94F6
:100F3000020568EE73E080E090E00E94200180E00E
:100F40000E947B0183E991E00E94020581E00E94FA
:100F50007B0184EA91E00E94020582E00E947B010D
:100F600085EB91E00E94020583E00E947B0186EC04
:100F700091E00E94020568EE73E080E090E00E943C
:100F800020010115110509F492CF0E9400008FCFB6
:100F9000EE0FFF1F0590F491E02D099481E090E0A1
:0A0FA000F8940C94D307F894FFCFE7
:100FAA00004014540040105000000000F503C8032C
:100FBA00FF049E03C103AE039F0300000000680103
:100FCA008200FF045002B50452019C047D044B4880
:100FDA00414C494C2052455A47554900456E67696C
:100FEA006E656572696E672053747564656E740008
:100FFA004C434420323078342049324320544553FC
:10100A0054002E2E2E2E2E2E2E2E2E2E2E2E2E2EFE
:10101A002E2E2E2E2E2E004C696E652031004C6924
:10102A006E652032004C696E652033004C696E652E
:10103A002034004C696E6520312054455354204FAA
:10104A004B2020004C696E652032205445535420B1
:10105A004F4B2020004C696E652033205445535471
:10106A00204F4B2020004C696E6520342054455394
:08107A0054204F4B2020000020
:00000001FF
